:1000000080310B28043405347E1480318D317C25F9
:1000100080317E10090080310D288031022080312E
:10002000EB00803103208031EC00353084008D30CE
:100030008500E3308600003087000030FF000A3082
:100040008D31632580315E3084008E3085005030E4
:100050008600013087000030FF001D308D316325A0
:1000600080312B3084008D308500B2308600013025
:1000700087000030FF000A308D3163258031203049
:10008000840027308500D030FE000030FF008D3125
:1000900057258031FB01E601E701E801E901EA01AA
:1000A000A0308400003085004330FE000030FF00A7
:1000B0008D3157258031203084000130850030306B
:1000C000FE000030FF008D3157258031A0308400C4
:1000D000013085001230FE000030FF008D315725C1
:1000E00080317E1020008331B12B2000DC015C08C0
:1000F000C9000130C935FF3E031D7A284935543EF9
:10010000860087010030C03F0030C13FC23FC33F7F
:100110000130C9004908DC0702305C02031C912849
:1001200092287728D001D1012000DD015D088331BC
:100130000B23803101302000C9004908DD0702305F
:100140005D02031CA428A52896280130D0070030A2
:10015000D13D5108803AC90080304902031DB228C0
:10016000F0305002031CB528B62894282000D20194
:10017000D3012000DE015E0883310B238031200093
:100180005E352F3E860001308700403FC900413F69
:10019000CA004908CB004A08CC000030CC1BFF3015
:1001A000CD00CE005E08CF000130CF35FF3E031DED
:1001B000D5284F35543E860087014B0881074131D1
:1001C0004C08813D41314D08813D41314E08813D12
:1001D0000130C9004908DE0702305E02031CF12825
:1001E000F228BB280130D2070030D33D5308803AB3
:1001F000C90080304902031DFF28F0305202031C61
:1002000002290329B9282000DF010030A3000030B3
:10021000A2000030A100F030A0005F08C90001304A
:10022000C935FF3E031D10294935543E860087011C
:10023000403FA400413FA500423FA600433FA70026
:1002400084314A24803120005F08CA000130CA3559
:10025000FF3E031D27294A35543E860087012008AA
:10026000C03F2108C13F2208C23F2308C33F5F357A
:10027000333E8600013087005F08C9000130C93570
:10028000FF3E031D3F294935543E84008501403F10
:100290000002CA000131413F003BCB005F35233EE5
:1002A0008600013087004A08C03F4B08C13F01303B
:1002B000C9004908DF0702305F02031C6029612979
:1002C000052908002000DE005E088531C725813140
:1002D00020005E08373E8600013087000103031DC1
:1002E0007229732995290130D5005E0A7829D53500
:1002F000890B77295508D60056082200CD04200026
:100300005E08D5000130D535FF3E031D83295535E4
:10031000433E8600013087005108C03F5208C13F6C
:100320005308C23F5408C33F3C2A5E08373E86004C
:10033000013087000430010603199F29A029AB2949
:100340005E08373E86000130870002300106031D3B
:10035000AA29AB29182A5408DD005308DC005208EA
:10036000DB005108DA005E08D5000130D535FF3ECC
:10037000031DB6295535433E860001308700403FB6
:10038000D600413FD700423FD800433FD90056082E
:10039000DA025708DB3B5808DC3B5908DD3B5D08B7
:1003A0005C045B045A040319D629D729EB295E089B
:1003B000D5000130D535FF3E031DDA2955353B3ECA
:1003C0008600013087005A08C03F5B08C13F5C08C7
:1003D000C23F5D08C33F5E08373E8600013087009C
:1003E00004300106031DF529F6293C2A5E08D500D4
:1003F0000130D535FF3E031DF9295535433E8600B2
:10040000013087005108C03F5208C13F5308C23F26
:100410005408C33F0130D5005E0A0F2AD535890B39
:100420000E2A5508FF3AD60056082200CD053C2A70
:100430005E08D5000130D535FF3E031D1B2A55351A
:100440003B3E8600013087000030C03F0030C13F96
:10045000C23FC33F5E08D5000130D535FF3E031DC6
:100460002D2A5535433E8600013087000030C03FBD
:100470000030C13FC23FC33F08002000BF003F081B
:10048000B3000130B335FF3E031D422A3335C43E6D
:10049000860087012F08C03F3008C13F3108C23FA6
:1004A0003208C33F3F08C23E860087016430B30074
:1004B00001083302A000A101031CA103A201A11B9A
:1004C000A2032208A3003F08B4000130B435FF3E68
:1004D000031D662A3435CC3E86008701403FA400C8
:1004E000413FA500423FA600433FA7008F315F2751
:1004F000823120002008B5002108B6002208B7008C
:100500002308B8003F08C23E860087010108B900F1
:10051000BA01BB01BC013C08A3003B08A2003A0899
:10052000A1003908A0003F08BD000130BD35FF3EE5
:10053000031D962A3D35C43E86008701403FA40036
:10054000413FA500423FA600433FA7008F315F27F0
:10055000823120002008B5072108B63D2208B73DAA
:100560002308B83D3F08BE000130BE35FF3E031DE5
:10057000B52A3E35CC3E860087013508C03F360897
:10058000C13F3708C23F3808C33F0030A3000030E6
:10059000A2000030A1006430A0003F08B300013089
:1005A000B335FF3E031DD02A3335CC3E860087018C
:1005B000403FA400413FA500423FA600433FA700A3
:1005C00084314A24823120003F08B4000130B43520
:1005D000FF3E031DE72A3435CC3E86008701200804
:1005E000C03F2108C13F2208C23F2308C33F3F0844
:1005F000B3000130B335FF3E031DFA2A3335CC3E3C
:1006000086008701403FAF00413FB000423FB1004C
:10061000433FB20008002000C8007F30C0004008FF
:100620008B058D310C258331200048088E31422600
:100630008331200048088E317B2683310030200032
:10064000C7000030C6000030C5000030C4004808B4
:100650008D31F4258331200048088E31992683316D
:10066000200048352B3E860001308700403FC00007
:10067000413FC1004008C4074108C53D0030C63DA8
:10068000C73D48088D31F4258331200048088E315C
:1006900099268331200048352B3E860001308700A3
:1006A000403FC000413FC1004008C4074108C53D6C
:1006B0000030C63DC73D48088D31F4258331200008
:1006C00048088E3199268331200048352B3E86001C
:1006D00001308700403FC000413FC1004008C407CF
:1006E0004108C53D0030C63DC73D48352B3E86001C
:1006F000013087004408C03F4508C13F8D311325B4
:1007000083318B1720004835273E86000130870053
:10071000403FC200413FC30048352B3E86000130B8
:100720008700403FC000413FC1004008C20241086D
:10073000C33B4208AF004308B000890D893B8909DB
:10074000B100B200480882313D2283312000483593
:100750002F3E8600013087002F08C03F3008C13F80
:1007600008008D311A2583318D316F25833100309A
:100770002000B1000030B0002530AF008030AE0066
:1007800087311E27833100302000A1009030A20065
:100790008F31372783318D31B825833120002408EC
:1007A000E2002308E1002208E0002108DF008E318A
:1007B0000C26833100308D313F2583312000200805
:1007C000BE002108BF00890D893B8909C000C10016
:1007D0008E31F426833115302000A1009030A20024
:1007E0008F313727833100308D314B258331200005
:1007F0002008BE002108BF00890D893B8909C0007F
:10080000C1008E31F426833115302000A1009030D4
:10081000A2008F313727833101308D313F2583315D
:1008200020002008BE002108BF00890D893B8909EE
:10083000C000C1008E31F426833115302000A100A4
:100840009030A2008F313727833101308D314B2515
:10085000833120002008BE002108BF00890D893B9C
:100860008909C000C1008E31F42683310F30200089
:10087000A1009030A2008F313727833168302000EB
:10088000E500E430890B422CE50B422C0000CB2B19
:1008900080310B282000AA01A31F4F2C502C5D2C67
:1008A000A009A109A209A309A00A0319A10A031911
:1008B000A20A0319A30AAA01AA0AA71F602C612C85
:1008C000702CA409A509A609A709A40A0319A50A59
:1008D0000319A60A0319A70A0130A8002808AA06C6
:1008E0000030AE000030AD000030AC000030AB0096
:1008F000230822042104200403197F2C802CC12CFE
:10090000A901A90A8E2C0130A035A10DA20DA30DBD
:10091000890B842C0130A8002808A907A31F912C5B
:10092000922C832C0130AB35AC0DAD0DAE0D890B87
:10093000932C23082702031DA72C22082602031D3F
:10094000A72C21082502031DA72C20082402031C24
:10095000AA2CAB2CB42C2008A4022108A53B220809
:10096000A63B2308A73B2B140130A336A20CA10CF5
:10097000A00C890BB52C0130A902031DC02CC12C81
:10098000922C2A080319C52CC62CD12CAB09AC0912
:10099000AD09AE09AB0A0319AC0A0319AD0A031974
:1009A000AE0A2E08A3002D08A2002C08A1002B08D7
:1009B000A00008002200A0012000A1012108213E82
:1009C00086000130870081012135233E86000130F9
:1009D00087000030C03FC13F2135273E86000130EF
:1009E00087000030C03FC13F21352B3E86000130DB
:1009F00087000030C03FC13F21352F3E86000130C7
:100A000087000030C03FC13F2135333E86000130B2
:100A100087001430C03F0030C13F2108373E8600B8
:100A20000130870081012108393E860001308700AE
:100A300081012108A0000130A035FF3E031D1C2DBF
:100A400020353B3E8600013087000030C03F00303B
:100A5000C13FC23FC33F2108A0000130A035FF3E87
:100A6000031D2E2D2035433E8600013087000030C7
:100A7000C03F0030C13FC23FC33F21084B3E86000C
:100A80000130870081012200CD01200021084E3E67
:100A900086000130870081010130A0002008A107F5
:100AA00002302102031C552D562DDE2C080020009B
:100AB000BB01310830042F042E04031D602D612D6D
:100AC000A02D30308D3121258531C62D3B08333E98
:100AD000860087010030A3000030A2000030A10092
:100AE0000A30A0003108A7003008A6002F08A50092
:100AF0002E08A40086318926853120002008810037
:100B00000030A3000030A2000030A1000A30A00095
:100B10003108A7003008A6002F08A5002E08A40061
:100B200086312E26853120002308B1002208B0002E
:100B30002108AF002008AE000130B2003208BB0728
:100B4000310830042F042E04031DA72DA82D662D77
:100B50003B08BD003D08031DAE2DAF2DB02DC62DA9
:100B60003D08BC000130BC023C08333E86008701D2
:100B70000108BC003030B2003208BC073C088D319F
:100B80002125853101302000BD02AA2D080020005A
:100B9000D00050088F31C827853120005008213EF1
:100BA0008600013087000108CF005008393E8600DA
:100BB000013087000108031DDE2DDF2DF22D4F03CC
:100BC000031DE32DE42DF22D50084B3E860001302D
:100BD000870081015008373E86000130870081017F
:100BE000810A262E5008393E860001308700010315
:100BF000031DFB2DFC2D092E4F08031D002E012E79
:100C0000092E5008373E86000130870004308100ED
:100C1000262E5008393E8600013087000103031D4F
:100C2000122E132E202E4F03031D172E182E202EAA
:100C30005008373E86000130870002308100262EA2
:100C40005008373E86000130870081015008393E48
:100C50008600013087004F08810008000030200026
:100C6000AC000030AB000030AA000030A90023081F
:100C700022042104200403193E2E3F2E802EAD01B4
:100C8000AD0A4D2E0130A035A10DA20DA30D890B8B
:100C9000432E0130A8002808AD07A31F502E512E67
:100CA000422E0130A935AA0DAB0DAC0D890B522E89
:100CB00023082702031D662E22082602031D662E26
:100CC00021082502031D662E20082402031C692E1C
:100CD0006A2E732E2008A4022108A53B2208A63BF9
:100CE0002308A73B29140130A336A20CA10CA00CA9
:100CF000890B742E0130AD02031D7F2E802E512EE4
:100D00002C08A3002B08A2002A08A1002908A00093
:100D10000800200023082204210420040319912E36
:100D2000922ECB2EA901A90AA02E0130A035A10D2B
:100D3000A20DA30D890B962E0130A8002808A90743
:100D4000A31FA32EA42E952E23082702031DB22E27
:100D500022082602031DB22E21082502031DB22EF1
:100D600020082402031CB52EB62EBE2E2008A40295
:100D70002108A53B2208A63B2308A73B0130A33648
:100D8000A20CA10CA00C890BBF2E0130A902031DDF
:100D9000CA2ECB2EA42E2708A3002608A2002508C1
:100DA000A1002408A00008007308720471047004F4
:100DB0000319DB2EDC2E152FF901F90AEA2E01307A
:100DC000F035F10DF20DF30D890BE02E0130F80036
:100DD0007808F907F31FED2EEE2EDF2E7308770249
:100DE000031DFC2E72087602031DFC2E710875028D
:100DF000031DFC2E70087402031CFF2E002F082F09
:100E00007008F4027108F53B7208F63B7308F73B73
:100E10000130F336F20CF10CF00C890B092F013084
:100E2000F902031D142F152FEE2E7708F300760814
:100E3000F2007508F1007408F0000800013020008D
:100E4000B900E830B8004830B7000030B6003108CB
:100E5000A3003008A2002F08A1002E08A000360829
:100E6000B2003708B3003808B4003908B5000230C2
:100E7000B536B40CB30CB20C890B382F3508A7006B
:100E80003408A6003308A5003208A40086312E26B7
:100E90008731FF3020002007B600FF30213DB7002A
:100EA000FF30223DB800FF30233DB9003708230052
:100EB0009C002000360823009B009F151E158731DB
:100EC000A52787318D319925873108000130210010
:100ED000DB070030DC3D0030DD3D0030DE3D5508F5
:100EE000F0005608F100F201F3010730D43E86000D
:100EF0008701403FF400413FF500423FF600433F89
:100F0000F7008631D42687317308720471047004A7
:100F1000031D8B2F8C2FA42F01302100DF07003001
:100F2000E03D0030E13D0030E23D01305B025C30ED
:100F30005C3B26305D3B05305E3B031CA02FA12FA0
:100F4000A42F8D31092587310800203086002730F5
:100F500087000030C03FEA308600273087008101DB
:100F6000EB3086002730870081012000A40124088F
:100F7000A000A1012130A2002730A30020082207F1
:100F800086002108233D870081010130A000200850
:100F9000A407C8302402031CCE2FCF2FB72FE9306F
:100FA0008600273087008101EC30860027308700DB
:100FB0000030C03FC13FC23FC33F0800200097013F
:100FC0009801FA30960018170730A00020089804FE
:100FD00017159717210090160B1BEF2FF02FF12FED
:100FE0000B178B1BF42FF52FF62F8B172000901A61
:100FF000FA2FFB2FFF2FDF30A000200890050800FC
:101A120021005417080021001D1408002100540859
:101A22003F390800FE302000A000200821009D055B
:101A320008008E31D5268D318731DE278D310800A1
:101A42002000A000200823009A009E1C292D2A2D88
:101A5200262D0800EF34FF34E434FF34E434FF343D
:101A6200EB34FF34E734FF34FE34FF34EA34FF341E
:101A7200E534FF34F134FF34EE34FF342000A200A9
:101A82002235233E860001308700403FA000413FBF
:101A9200A10008002000A20022352F3E860001305E
:101AA2008700403FA000413FA10008006400800180
:101AB20001310130FE020030FF3B7F087E04031D2E
:101AC200582D0034FE0012001E000130FE020030CC
:101AD200FF3B7F087E04031D642D00348431DA2429
:101AE2008D318F3193278D318D31C9258D318031E3
:101AF20075208D3108002000901E802D812D892DAA
:101B0200873166278D31DF30FA007A082000900590
:101B120008002000A2000130A000220A912DA03569
:101B2200890B902D2008A100210822008C040800B6
:101B320021008C14FD302000A000200823008C0519
:101B420014303D00910023009E169D1708002000CE
:101B5200A2000130A000220AAF2DA035890BAE2DC4
:101B62002008FF3AA100210822008C0508008D31CF
:101B7200DD258D310730D43E86008701403F2000AD
:101B8200A100413FA200423FA300433FA40008003E
:101B92000330220097009717171FD02DD12DCD2D7E
:101BA20021009D019E01A0302000A00020082100FC
:101BB2009E049F011D14080001302000A00020088F
:101BC2002100D4078D310F258D312000A000403037
:101BD2002002031CED2DEE2DF32D3F30A000200836
:101BE2002100D40408002000A60026086B3E8600CF
:101BF200870101088E31B7268D31200026086B3E01
:101C02008600870101088D318A258D313C308F3164
:101C120015278D3108002000E4016208D400610814
:101C2200D3006008D2005F08D100640881316221CC
:101C32008E3101302000E3006308E40702306402C1
:101C4200031C242E252E0E2E08002000A200013097
:101C5200A000220A2D2EA035890B2C2E2008A100CF
:101C6200210821008C0401302000A000220A3A2E13
:101C7200A035890B392E2008A100210823008C04ED
:101C820008002000A60026086B3E86008701010896
:101C92008E31B7268E31200026086B3E86008701E2
:101CA20001088D31A8258E313F308F3115278E31B5
:101CB2003F308F3115278E3108003F3406345B34B4
:101CC2004F3466346D347D3407347F346F340034DE
:101CD200403477347C3439345E34793471340034AE
:101CE200F334FF34E834FF34E534FF34EF34FF34A7
:101CF200EB34FF342000A60026086B3E86008701E5
:101D020001088E3126268E31200026086B3E860081
:101D1200870101088F3115278E3120002635273E95
:101D22008600013087002008C03F2108C13F08001B
:101D32002000A60026086B3E8600870101088E312E
:101D420026268E31200026086B3E86008701010878
:101D52008F3115278E31200026352B3E860001302B
:101D620087002008C03F2108C13F08002000A200D0
:101D72000130A000220ABE2EA035890BBD2E2008FC
:101D8200FF3AA100210823008C0501302000A000A9
:101D9200220ACC2EA035890BCB2E2008FF3AA100B7
:101DA200210821008C0508002100D4010030D60052
:101DB2003230D5000030DA000030D9000030D800CF
:101DC2000030D7000030DE000030DD000030DC00E3
:101DD2000030DB000030E2000030E1000030E000C3
:101DE2000030DF0008002000C11FF82EF92E092F55
:101DF2002D308D3121258E312000BE09BF09C00949
:101E0200C109BE0A0319BF0A0319C00A0319C10A8C
:101E12004108B1004008B0003F08AF003E08AE00E4
:101E2200853157258E3108002000A5002508A20023
:101E32000130A235FF3E031D1A2F22350138210041
:101E42009D009D149D18262F272F232F1C0820004C
:101E5200A40021001B082000A300BF30A20022081A
:101E620091052408A1002308A00008002000A60173
:101E72004E2F2208A4002108A3002608230784006D
:101E820024080318240A850000088D3121258F318A
:101E920001302000A3002308A6072208A40021087D
:101EA200A30026082307840024080318240A8500B7
:101EB2001200031D5D2F5E2F3A2F08000030200014
:101EC200AB000030AA000030A9000030A800201C9E
:101ED2006B2F6C2F742F2408A8072508A93D26080C
:101EE200AA3D2708AB3D0130A435A50DA60DA70DCF
:101EF200890B752F0130A336A20CA10CA00C890B03
:101F02007C2F2308220421042004031D892F8A2FF9
:101F1200682F2B08A3002A08A2002908A10028087C
:101F2200A00008002000A1012108C23E860087010E
:101F3200463081002108A0000130A035FF3E031D7C
:101F42009E2F2035C43E860087010030C03F0030FE
:101F5200C13FC23FC33F2108A0000130A035FF3E70
:101F6200031DAF2F2035CC3E860087010030C03FD5
:101F72000030C13FC23FC33F0130A0002008A1078B
:101F820002302102031CC62FC72F952F0800200004
:101F9200CE004E0883310B238F3120004E35233E75
:101FA200860001308700403FC900413FCA004E35DC
:101FB2002F3E860001308700403FCB00413FCC00DE
:101FC2004C08803ACD004A08803A4D02031DEB2F9F
:101FD20049084B020318EE2FEF2FF82F20004E086E
:101FE200213E8600013087008101810AFF2F2000F7
:101FF2004E08213E860001308700810108000D3421
:102002000A344434653462347534673420345334CA
:102012007434613472347434653464340D340A3483
:0C20220000342034203400342C3400340E
:020000040001F9
:08000E008C3FF337FF3FFF3F79
:00000001FF
